:020000020000FC
:1000000007C001020507080C140000010A190600C8
:10001000D1E2CFEFDEBFCDBFF0E0E2E0B2E0A0E0A2
:1000200015911D9333953730D9F73327442711277E
:100030002227F0E0EAE017E0A12E12E0812E10E086
:10004000912E1591B12E06D0A82E3395353009F09A
:10005000F8CFFFCF1F932F933F934F93B82DA92D28
:10006000332744278A2D1C91B116A1F028F033952F
:10007000A31670F01196F7CF4A2D431B43953327F3
:100080002B2D1C912D93212F3395341711F0F9CF7F
:0E009000BC9283954F913F912F911F9108953F
:00000001FF
